{
  "contractName": "NEELERC721Token",
  "abi": [
    {
      "anonymous": false,
      "inputs": [
        {
          "indexed": true,
          "internalType": "address",
          "name": "owner",
          "type": "address"
        },
        {
          "indexed": true,
          "internalType": "address",
          "name": "approved",
          "type": "address"
        },
        {
          "indexed": true,
          "internalType": "uint256",
          "name": "tokenId",
          "type": "uint256"
        }
      ],
      "name": "Approval",
      "type": "event"
    },
    {
      "anonymous": false,
      "inputs": [
        {
          "indexed": true,
          "internalType": "address",
          "name": "owner",
          "type": "address"
        },
        {
          "indexed": true,
          "internalType": "address",
          "name": "operator",
          "type": "address"
        },
        {
          "indexed": false,
          "internalType": "bool",
          "name": "approved",
          "type": "bool"
        }
      ],
      "name": "ApprovalForAll",
      "type": "event"
    },
    {
      "anonymous": false,
      "inputs": [
        {
          "indexed": false,
          "internalType": "address",
          "name": "oldOwner",
          "type": "address"
        },
        {
          "indexed": false,
          "internalType": "address",
          "name": "newOwner",
          "type": "address"
        }
      ],
      "name": "OwnershipTransfer",
      "type": "event"
    },
    {
      "anonymous": false,
      "inputs": [
        {
          "indexed": false,
          "internalType": "address",
          "name": "messageSender",
          "type": "address"
        }
      ],
      "name": "Pause",
      "type": "event"
    },
    {
      "anonymous": false,
      "inputs": [
        {
          "indexed": true,
          "internalType": "address",
          "name": "from",
          "type": "address"
        },
        {
          "indexed": true,
          "internalType": "address",
          "name": "to",
          "type": "address"
        },
        {
          "indexed": true,
          "internalType": "uint256",
          "name": "tokenId",
          "type": "uint256"
        }
      ],
      "name": "Transfer",
      "type": "event"
    },
    {
      "anonymous": false,
      "inputs": [
        {
          "indexed": false,
          "internalType": "address",
          "name": "messageSender",
          "type": "address"
        }
      ],
      "name": "Unpause",
      "type": "event"
    },
    {
      "constant": false,
      "inputs": [
        {
          "internalType": "bytes32",
          "name": "_myid",
          "type": "bytes32"
        },
        {
          "internalType": "string",
          "name": "_result",
          "type": "string"
        }
      ],
      "name": "__callback",
      "outputs": [],
      "payable": false,
      "stateMutability": "nonpayable",
      "type": "function"
    },
    {
      "constant": false,
      "inputs": [
        {
          "internalType": "bytes32",
          "name": "_myid",
          "type": "bytes32"
        },
        {
          "internalType": "string",
          "name": "_result",
          "type": "string"
        },
        {
          "internalType": "bytes",
          "name": "_proof",
          "type": "bytes"
        }
      ],
      "name": "__callback",
      "outputs": [],
      "payable": false,
      "stateMutability": "nonpayable",
      "type": "function"
    },
    {
      "constant": false,
      "inputs": [
        {
          "internalType": "address",
          "name": "to",
          "type": "address"
        },
        {
          "internalType": "uint256",
          "name": "tokenId",
          "type": "uint256"
        }
      ],
      "name": "approve",
      "outputs": [],
      "payable": false,
      "stateMutability": "nonpayable",
      "type": "function"
    },
    {
      "constant": true,
      "inputs": [
        {
          "internalType": "address",
          "name": "owner",
          "type": "address"
        }
      ],
      "name": "balanceOf",
      "outputs": [
        {
          "internalType": "uint256",
          "name": "",
          "type": "uint256"
        }
      ],
      "payable": false,
      "stateMutability": "view",
      "type": "function"
    },
    {
      "constant": true,
      "inputs": [],
      "name": "baseTokenURI",
      "outputs": [
        {
          "internalType": "string",
          "name": "",
          "type": "string"
        }
      ],
      "payable": false,
      "stateMutability": "view",
      "type": "function"
    },
    {
      "constant": true,
      "inputs": [
        {
          "internalType": "uint256",
          "name": "tokenId",
          "type": "uint256"
        }
      ],
      "name": "getApproved",
      "outputs": [
        {
          "internalType": "address",
          "name": "",
          "type": "address"
        }
      ],
      "payable": false,
      "stateMutability": "view",
      "type": "function"
    },
    {
      "constant": true,
      "inputs": [
        {
          "internalType": "address",
          "name": "owner",
          "type": "address"
        },
        {
          "internalType": "address",
          "name": "operator",
          "type": "address"
        }
      ],
      "name": "isApprovedForAll",
      "outputs": [
        {
          "internalType": "bool",
          "name": "",
          "type": "bool"
        }
      ],
      "payable": false,
      "stateMutability": "view",
      "type": "function"
    },
    {
      "constant": true,
      "inputs": [],
      "name": "name",
      "outputs": [
        {
          "internalType": "string",
          "name": "",
          "type": "string"
        }
      ],
      "payable": false,
      "stateMutability": "view",
      "type": "function"
    },
    {
      "constant": true,
      "inputs": [],
      "name": "owner",
      "outputs": [
        {
          "internalType": "address",
          "name": "",
          "type": "address"
        }
      ],
      "payable": false,
      "stateMutability": "view",
      "type": "function"
    },
    {
      "constant": true,
      "inputs": [
        {
          "internalType": "uint256",
          "name": "tokenId",
          "type": "uint256"
        }
      ],
      "name": "ownerOf",
      "outputs": [
        {
          "internalType": "address",
          "name": "",
          "type": "address"
        }
      ],
      "payable": false,
      "stateMutability": "view",
      "type": "function"
    },
    {
      "constant": false,
      "inputs": [],
      "name": "pauseContract",
      "outputs": [],
      "payable": false,
      "stateMutability": "nonpayable",
      "type": "function"
    },
    {
      "constant": false,
      "inputs": [
        {
          "internalType": "address",
          "name": "from",
          "type": "address"
        },
        {
          "internalType": "address",
          "name": "to",
          "type": "address"
        },
        {
          "internalType": "uint256",
          "name": "tokenId",
          "type": "uint256"
        }
      ],
      "name": "safeTransferFrom",
      "outputs": [],
      "payable": false,
      "stateMutability": "nonpayable",
      "type": "function"
    },
    {
      "constant": false,
      "inputs": [
        {
          "internalType": "address",
          "name": "from",
          "type": "address"
        },
        {
          "internalType": "address",
          "name": "to",
          "type": "address"
        },
        {
          "internalType": "uint256",
          "name": "tokenId",
          "type": "uint256"
        },
        {
          "internalType": "bytes",
          "name": "_data",
          "type": "bytes"
        }
      ],
      "name": "safeTransferFrom",
      "outputs": [],
      "payable": false,
      "stateMutability": "nonpayable",
      "type": "function"
    },
    {
      "constant": false,
      "inputs": [
        {
          "internalType": "address",
          "name": "to",
          "type": "address"
        },
        {
          "internalType": "bool",
          "name": "approved",
          "type": "bool"
        }
      ],
      "name": "setApprovalForAll",
      "outputs": [],
      "payable": false,
      "stateMutability": "nonpayable",
      "type": "function"
    },
    {
      "constant": true,
      "inputs": [
        {
          "internalType": "bytes4",
          "name": "interfaceId",
          "type": "bytes4"
        }
      ],
      "name": "supportsInterface",
      "outputs": [
        {
          "internalType": "bool",
          "name": "",
          "type": "bool"
        }
      ],
      "payable": false,
      "stateMutability": "view",
      "type": "function"
    },
    {
      "constant": true,
      "inputs": [],
      "name": "symbol",
      "outputs": [
        {
          "internalType": "string",
          "name": "",
          "type": "string"
        }
      ],
      "payable": false,
      "stateMutability": "view",
      "type": "function"
    },
    {
      "constant": true,
      "inputs": [
        {
          "internalType": "uint256",
          "name": "index",
          "type": "uint256"
        }
      ],
      "name": "tokenByIndex",
      "outputs": [
        {
          "internalType": "uint256",
          "name": "",
          "type": "uint256"
        }
      ],
      "payable": false,
      "stateMutability": "view",
      "type": "function"
    },
    {
      "constant": true,
      "inputs": [
        {
          "internalType": "address",
          "name": "owner",
          "type": "address"
        },
        {
          "internalType": "uint256",
          "name": "index",
          "type": "uint256"
        }
      ],
      "name": "tokenOfOwnerByIndex",
      "outputs": [
        {
          "internalType": "uint256",
          "name": "",
          "type": "uint256"
        }
      ],
      "payable": false,
      "stateMutability": "view",
      "type": "function"
    },
    {
      "constant": true,
      "inputs": [
        {
          "internalType": "uint256",
          "name": "tokenId",
          "type": "uint256"
        }
      ],
      "name": "tokenURI",
      "outputs": [
        {
          "internalType": "string",
          "name": "",
          "type": "string"
        }
      ],
      "payable": false,
      "stateMutability": "view",
      "type": "function"
    },
    {
      "constant": true,
      "inputs": [],
      "name": "totalSupply",
      "outputs": [
        {
          "internalType": "uint256",
          "name": "",
          "type": "uint256"
        }
      ],
      "payable": false,
      "stateMutability": "view",
      "type": "function"
    },
    {
      "constant": false,
      "inputs": [
        {
          "internalType": "address",
          "name": "from",
          "type": "address"
        },
        {
          "internalType": "address",
          "name": "to",
          "type": "address"
        },
        {
          "internalType": "uint256",
          "name": "tokenId",
          "type": "uint256"
        }
      ],
      "name": "transferFrom",
      "outputs": [],
      "payable": false,
      "stateMutability": "nonpayable",
      "type": "function"
    },
    {
      "constant": false,
      "inputs": [
        {
          "internalType": "address",
          "name": "newOwner",
          "type": "address"
        }
      ],
      "name": "transferOwnership",
      "outputs": [],
      "payable": false,
      "stateMutability": "nonpayable",
      "type": "function"
    },
    {
      "constant": false,
      "inputs": [],
      "name": "unpauseContract",
      "outputs": [],
      "payable": false,
      "stateMutability": "nonpayable",
      "type": "function"
    },
    {
      "constant": false,
      "inputs": [
        {
          "internalType": "address",
          "name": "to",
          "type": "address"
        },
        {
          "internalType": "uint256",
          "name": "tokenId",
          "type": "uint256"
        }
      ],
      "name": "mint",
      "outputs": [
        {
          "internalType": "bool",
          "name": "",
          "type": "bool"
        }
      ],
      "payable": false,
      "stateMutability": "nonpayable",
      "type": "function"
    }
  ],
  "bytecode": "0x60806040526040518060400160405280601781526020017f5265616c20457374617465204d61726b6574706c6163650000000000000000008152506040518060400160405280600381526020017f4e524d00000000000000000000000000000000000000000000000000000000008152506040518060600160405280603f8152602001620032fa603f9139336000806101000a81548173ffffffffffffffffffffffffffffffffffffffff021916908373ffffffffffffffffffffffffffffffffffffffff1602179055507f22500af037c600dd7b720644ab6e358635085601d9ac508ad83eb2d6b2d729ca60008060009054906101000a900473ffffffffffffffffffffffffffffffffffffffff16604051808373ffffffffffffffffffffffffffffffffffffffff1673ffffffffffffffffffffffffffffffffffffffff1681526020018273ffffffffffffffffffffffffffffffffffffffff1673ffffffffffffffffffffffffffffffffffffffff1681526020019250505060405180910390a160008060146101000a81548160ff021916908315150217905550620001b56301ffc9a760e01b6200025160201b60201c565b620001cd6380ac58cd60e01b6200025160201b60201c565b620001e563780e9d6360e01b6200025160201b60201c565b82600f9080519060200190620001fd929190620002f1565b50816010908051906020019062000216929190620002f1565b5080601190805190602001906200022f929190620002f1565b5062000248635b5e139f60e01b6200025160201b60201c565b505050620003a0565b63ffffffff60e01b817bffffffffffffffffffffffffffffffffffffffffffffffffffffffff191614156200028557600080fd5b6001806000837bffffffffffffffffffffffffffffffffffffffffffffffffffffffff19167bffffffffffffffffffffffffffffffffffffffffffffffffffffffff1916815260200190815260200160002060006101000a81548160ff02191690831515021790555050565b828054600181600116156101000203166002900490600052602060002090601f016020900481019282601f106200033457805160ff191683800117855562000365565b8280016001018555821562000365579182015b828111156200036457825182559160200191906001019062000347565b5b50905062000374919062000378565b5090565b6200039d91905b80821115620003995760008160009055506001016200037f565b5090565b90565b612f4a80620003b06000396000f3fe608060405234801561001057600080fd5b50600436106101585760003560e01c80634f6ccce7116100c3578063b33712c51161007c578063b33712c514610913578063b88d4fde1461091d578063c87b56dd14610a22578063d547cfb714610ac9578063e985e9c514610b4c578063f2fde38b14610bc857610158565b80634f6ccce7146106ee5780636352211e1461073057806370a082311461079e5780638da5cb5b146107f657806395d89b4114610840578063a22cb465146108c357610158565b806327dc297e1161011557806327dc297e1461038d5780632f745c591461045257806338bbfa50146104b457806340c10f191461061057806342842e0e14610676578063439766ce146106e457610158565b806301ffc9a71461015d57806306fdde03146101c2578063081812fc14610245578063095ea7b3146102b357806318160ddd1461030157806323b872dd1461031f575b600080fd5b6101a86004803603602081101561017357600080fd5b8101908080357bffffffffffffffffffffffffffffffffffffffffffffffffffffffff19169060200190929190505050610c0c565b604051808215151515815260200191505060405180910390f35b6101ca610c74565b6040518080602001828103825283818151815260200191508051906020019080838360005b8381101561020a5780820151818401526020810190506101ef565b50505050905090810190601f1680156102375780820380516001836020036101000a031916815260200191505b509250505060405180910390f35b6102716004803603602081101561025b57600080fd5b8101908080359060200190929190505050610d16565b604051808273ffffffffffffffffffffffffffffffffffffffff1673ffffffffffffffffffffffffffffffffffffffff16815260200191505060405180910390f35b6102ff600480360360408110156102c957600080fd5b81019080803573ffffffffffffffffffffffffffffffffffffffff16906020019092919080359060200190929190505050610dce565b005b610309610fbe565b6040518082815260200191505060405180910390f35b61038b6004803603606081101561033557600080fd5b81019080803573ffffffffffffffffffffffffffffffffffffffff169060200190929190803573ffffffffffffffffffffffffffffffffffffffff16906020019092919080359060200190929190505050610fcb565b005b610450600480360360408110156103a357600080fd5b8101908080359060200190929190803590602001906401000000008111156103ca57600080fd5b8201836020820111156103dc57600080fd5b803590602001918460018302840111640100000000831117156103fe57600080fd5b91908080601f016020809104026020016040519081016040528093929190818152602001838380828437600081840152601f19601f820116905080830192505050505050509192919290505050610fee565b005b61049e6004803603604081101561046857600080fd5b81019080803573ffffffffffffffffffffffffffffffffffffffff16906020019092919080359060200190929190505050611031565b6040518082815260200191505060405180910390f35b61060e600480360360608110156104ca57600080fd5b8101908080359060200190929190803590602001906401000000008111156104f157600080fd5b82018360208201111561050357600080fd5b8035906020019184600183028401116401000000008311171561052557600080fd5b91908080601f016020809104026020016040519081016040528093929190818152602001838380828437600081840152601f19601f8201169050808301925050505050505091929192908035906020019064010000000081111561058857600080fd5b82018360208201111561059a57600080fd5b803590602001918460018302840111640100000000831117156105bc57600080fd5b91908080601f016020809104026020016040519081016040528093929190818152602001838380828437600081840152601f19601f8201169050808301925050505050505091929192905050506110a4565b005b61065c6004803603604081101561062657600080fd5b81019080803573ffffffffffffffffffffffffffffffffffffffff169060200190929190803590602001909291905050506110a9565b604051808215151515815260200191505060405180910390f35b6106e26004803603606081101561068c57600080fd5b81019080803573ffffffffffffffffffffffffffffffffffffffff169060200190929190803573ffffffffffffffffffffffffffffffffffffffff1690602001909291908035906020019092919050505061116d565b005b6106ec61118d565b005b61071a6004803603602081101561070457600080fd5b810190808035906020019092919050505061133b565b6040518082815260200191505060405180910390f35b61075c6004803603602081101561074657600080fd5b810190808035906020019092919050505061136f565b604051808273ffffffffffffffffffffffffffffffffffffffff1673ffffffffffffffffffffffffffffffffffffffff16815260200191505060405180910390f35b6107e0600480360360208110156107b457600080fd5b81019080803573ffffffffffffffffffffffffffffffffffffffff1690602001909291905050506113ac565b6040518082815260200191505060405180910390f35b6107fe6113fc565b604051808273ffffffffffffffffffffffffffffffffffffffff1673ffffffffffffffffffffffffffffffffffffffff16815260200191505060405180910390f35b610848611425565b6040518080602001828103825283818151815260200191508051906020019080838360005b8381101561088857808201518184015260208101905061086d565b50505050905090810190601f1680156108b55780820380516001836020036101000a031916815260200191505b509250505060405180910390f35b610911600480360360408110156108d957600080fd5b81019080803573ffffffffffffffffffffffffffffffffffffffff1690602001909291908035151590602001909291905050506114c7565b005b61091b611601565b005b610a206004803603608081101561093357600080fd5b81019080803573ffffffffffffffffffffffffffffffffffffffff169060200190929190803573ffffffffffffffffffffffffffffffffffffffff169060200190929190803590602001909291908035906020019064010000000081111561099a57600080fd5b8201836020820111156109ac57600080fd5b803590602001918460018302840111640100000000831117156109ce57600080fd5b91908080601f016020809104026020016040519081016040528093929190818152602001838380828437600081840152601f19601f8201169050808301925050505050505091929192905050506117ae565b005b610a4e60048036036020811015610a3857600080fd5b81019080803590602001909291905050506117d4565b6040518080602001828103825283818151815260200191508051906020019080838360005b83811015610a8e578082015181840152602081019050610a73565b50505050905090810190601f168015610abb5780820380516001836020036101000a031916815260200191505b509250505060405180910390f35b610ad161189b565b6040518080602001828103825283818151815260200191508051906020019080838360005b83811015610b11578082015181840152602081019050610af6565b50505050905090810190601f168015610b3e5780820380516001836020036101000a031916815260200191505b509250505060405180910390f35b610bae60048036036040811015610b6257600080fd5b81019080803573ffffffffffffffffffffffffffffffffffffffff169060200190929190803573ffffffffffffffffffffffffffffffffffffffff16906020019092919050505061193d565b604051808215151515815260200191505060405180910390f35b610c0a60048036036020811015610bde57600080fd5b81019080803573ffffffffffffffffffffffffffffffffffffffff1690602001909291905050506119d1565b005b600060016000837bffffffffffffffffffffffffffffffffffffffffffffffffffffffff19167bffffffffffffffffffffffffffffffffffffffffffffffffffffffff1916815260200190815260200160002060009054906101000a900460ff169050919050565b6060600f8054600181600116156101000203166002900480601f016020809104026020016040519081016040528092919081815260200182805460018160011615610100020316600290048015610d0c5780601f10610ce157610100808354040283529160200191610d0c565b820191906000526020600020905b815481529060010190602001808311610cef57829003601f168201915b5050505050905090565b6000610d2182611bf7565b610d93576040517f08c379a000000000000000000000000000000000000000000000000000000000815260040180806020018281038252601b8152602001807f54686520746f6b656e20496420646f6573206e6f74206578697374000000000081525060200191505060405180910390fd5b6003600083815260200190815260200160002060009054906101000a900473ffffffffffffffffffffffffffffffffffffffff169050919050565b6000610dd86113fc565b9050610de38261136f565b73ffffffffffffffffffffffffffffffffffffffff168373ffffffffffffffffffffffffffffffffffffffff161415610e67576040517f08c379a0000000000000000000000000000000000000000000000000000000008152600401808060200182810382526035815260200180612ee16035913960400191505060405180910390fd5b8073ffffffffffffffffffffffffffffffffffffffff163373ffffffffffffffffffffffffffffffffffffffff161480610eaf5750610eae610ea88361136f565b3361193d565b5b610f04576040517f08c379a0000000000000000000000000000000000000000000000000000000008152600401808060200182810382526049815260200180612e116049913960600191505060405180910390fd5b826003600084815260200190815260200160002060006101000a81548173ffffffffffffffffffffffffffffffffffffffff021916908373ffffffffffffffffffffffffffffffffffffffff160217905550818373ffffffffffffffffffffffffffffffffffffffff16610f778461136f565b73ffffffffffffffffffffffffffffffffffffffff167f8c5be1e5ebec7d5bd14f71427d1e84f3dd0314c0f7b2291e5b200ac8c7c3b92560405160405180910390a4505050565b6000600880549050905090565b610fd53382611c69565b610fde57600080fd5b610fe9838383611cfe565b505050565b61102d828260006040519080825280601f01601f1916602001820160405280156110275781602001600182028038833980820191505090505b506110a4565b5050565b600061103c836113ac565b821061104757600080fd5b600660008473ffffffffffffffffffffffffffffffffffffffff1673ffffffffffffffffffffffffffffffffffffffff168152602001908152602001600020828154811061109157fe5b9060005260206000200154905092915050565b505050565b60008060009054906101000a900473ffffffffffffffffffffffffffffffffffffffff1673ffffffffffffffffffffffffffffffffffffffff163373ffffffffffffffffffffffffffffffffffffffff1614611150576040517f08c379a0000000000000000000000000000000000000000000000000000000008152600401808060200182810382526034815260200180612e5a6034913960400191505060405180910390fd5b61115a8383611d22565b61116382611d43565b6001905092915050565b611188838383604051806020016040528060008152506117ae565b505050565b6000809054906101000a900473ffffffffffffffffffffffffffffffffffffffff1673ffffffffffffffffffffffffffffffffffffffff163373ffffffffffffffffffffffffffffffffffffffff1614611232576040517f08c379a0000000000000000000000000000000000000000000000000000000008152600401808060200182810382526034815260200180612e5a6034913960400191505060405180910390fd5b60001515600060149054906101000a900460ff161515146112bb576040517f08c379a000000000000000000000000000000000000000000000000000000000815260040180806020018281038252601f8152602001807f54686520636f6e7472616374206d757374206e6f74206265207061757365640081525060200191505060405180910390fd5b6001600060146101000a81548160ff0219169083151502179055507f5ee71a369c8672edded508e624ffc9257fa1ae6886ef32905c18e60196bca39933604051808273ffffffffffffffffffffffffffffffffffffffff1673ffffffffffffffffffffffffffffffffffffffff16815260200191505060405180910390a1565b6000611345610fbe565b821061135057600080fd5b6008828154811061135d57fe5b90600052602060002001549050919050565b60006002600083815260200190815260200160002060009054906101000a900473ffffffffffffffffffffffffffffffffffffffff169050919050565b60006113f5600460008473ffffffffffffffffffffffffffffffffffffffff1673ffffffffffffffffffffffffffffffffffffffff168152602001908152602001600020611e9a565b9050919050565b60008060009054906101000a900473ffffffffffffffffffffffffffffffffffffffff16905090565b606060108054600181600116156101000203166002900480601f0160208091040260200160405190810160405280929190818152602001828054600181600116156101000203166002900480156114bd5780601f10611492576101008083540402835291602001916114bd565b820191906000526020600020905b8154815290600101906020018083116114a057829003601f168201915b5050505050905090565b3373ffffffffffffffffffffffffffffffffffffffff168273ffffffffffffffffffffffffffffffffffffffff16141561150057600080fd5b80600560003373ffffffffffffffffffffffffffffffffffffffff1673ffffffffffffffffffffffffffffffffffffffff16815260200190815260200160002060008473ffffffffffffffffffffffffffffffffffffffff1673ffffffffffffffffffffffffffffffffffffffff16815260200190815260200160002060006101000a81548160ff0219169083151502179055508173ffffffffffffffffffffffffffffffffffffffff163373ffffffffffffffffffffffffffffffffffffffff167f17307eab39ab6107e8899845ad3d59bd9653f200f220920489ca2b5937696c3183604051808215151515815260200191505060405180910390a35050565b6000809054906101000a900473ffffffffffffffffffffffffffffffffffffffff1673ffffffffffffffffffffffffffffffffffffffff163373ffffffffffffffffffffffffffffffffffffffff16146116a6576040517f08c379a0000000000000000000000000000000000000000000000000000000008152600401808060200182810382526034815260200180612e5a6034913960400191505060405180910390fd5b60011515600060149054906101000a900460ff1615151461172f576040517f08c379a000000000000000000000000000000000000000000000000000000000815260040180806020018281038252601b8152602001807f54686520636f6e7472616374206d75737420626520706175736564000000000081525060200191505060405180910390fd5b60008060146101000a81548160ff0219169083151502179055507faeb196d352664784d1900b0e7414a8face7d29f4dae8c4b0cf68ed477423bbf433604051808273ffffffffffffffffffffffffffffffffffffffff1673ffffffffffffffffffffffffffffffffffffffff16815260200191505060405180910390a1565b6117b9848484610fcb565b6117c584848484611ea8565b6117ce57600080fd5b50505050565b60606117df82611bf7565b6117e857600080fd5b601260008381526020019081526020016000208054600181600116156101000203166002900480601f01602080910402602001604051908101604052809291908181526020018280546001816001161561010002031660029004801561188f5780601f106118645761010080835404028352916020019161188f565b820191906000526020600020905b81548152906001019060200180831161187257829003601f168201915b50505050509050919050565b606060118054600181600116156101000203166002900480601f0160208091040260200160405190810160405280929190818152602001828054600181600116156101000203166002900480156119335780601f1061190857610100808354040283529160200191611933565b820191906000526020600020905b81548152906001019060200180831161191657829003601f168201915b5050505050905090565b6000600560008473ffffffffffffffffffffffffffffffffffffffff1673ffffffffffffffffffffffffffffffffffffffff16815260200190815260200160002060008373ffffffffffffffffffffffffffffffffffffffff1673ffffffffffffffffffffffffffffffffffffffff16815260200190815260200160002060009054906101000a900460ff16905092915050565b6000809054906101000a900473ffffffffffffffffffffffffffffffffffffffff1673ffffffffffffffffffffffffffffffffffffffff163373ffffffffffffffffffffffffffffffffffffffff1614611a76576040517f08c379a0000000000000000000000000000000000000000000000000000000008152600401808060200182810382526034815260200180612e5a6034913960400191505060405180910390fd5b600073ffffffffffffffffffffffffffffffffffffffff168173ffffffffffffffffffffffffffffffffffffffff161415611afc576040517f08c379a0000000000000000000000000000000000000000000000000000000008152600401808060200182810382526024815260200180612e8e6024913960400191505060405180910390fd5b7f22500af037c600dd7b720644ab6e358635085601d9ac508ad83eb2d6b2d729ca6000809054906101000a900473ffffffffffffffffffffffffffffffffffffffff1682604051808373ffffffffffffffffffffffffffffffffffffffff1673ffffffffffffffffffffffffffffffffffffffff1681526020018273ffffffffffffffffffffffffffffffffffffffff1673ffffffffffffffffffffffffffffffffffffffff1681526020019250505060405180910390a1806000806101000a81548173ffffffffffffffffffffffffffffffffffffffff021916908373ffffffffffffffffffffffffffffffffffffffff16021790555050565b6000806002600084815260200190815260200160002060009054906101000a900473ffffffffffffffffffffffffffffffffffffffff169050600073ffffffffffffffffffffffffffffffffffffffff168173ffffffffffffffffffffffffffffffffffffffff161415915050919050565b600080611c758361136f565b90508073ffffffffffffffffffffffffffffffffffffffff168473ffffffffffffffffffffffffffffffffffffffff161480611ce457508373ffffffffffffffffffffffffffffffffffffffff16611ccc84610d16565b73ffffffffffffffffffffffffffffffffffffffff16145b80611cf55750611cf4818561193d565b5b91505092915050565b611d09838383612091565b611d1383826122cb565b611d1d8282612469565b505050565b611d2c8282612530565b611d368282612469565b611d3f81612674565b5050565b611d4c81611bf7565b611dbe576040517f08c379a000000000000000000000000000000000000000000000000000000000815260040180806020018281038252601a8152602001807f476976656e20746f6b656e20646f6573206e6f7420657869737400000000000081525060200191505060405180910390fd5b6060611dc9826126c0565b9050611e6f60118054600181600116156101000203166002900480601f016020809104026020016040519081016040528092919081815260200182805460018160011615610100020316600290048015611e645780601f10611e3957610100808354040283529160200191611e64565b820191906000526020600020905b815481529060010190602001808311611e4757829003601f168201915b5050505050826127ed565b601260008481526020019081526020016000209080519060200190611e95929190612d3f565b505050565b600081600001549050919050565b6000611ec98473ffffffffffffffffffffffffffffffffffffffff16612831565b611ed65760019050612089565b60008473ffffffffffffffffffffffffffffffffffffffff1663150b7a02338887876040518563ffffffff1660e01b8152600401808573ffffffffffffffffffffffffffffffffffffffff1673ffffffffffffffffffffffffffffffffffffffff1681526020018473ffffffffffffffffffffffffffffffffffffffff1673ffffffffffffffffffffffffffffffffffffffff16815260200183815260200180602001828103825283818151815260200191508051906020019080838360005b83811015611fb1578082015181840152602081019050611f96565b50505050905090810190601f168015611fde5780820380516001836020036101000a031916815260200191505b5095505050505050602060405180830381600087803b15801561200057600080fd5b505af1158015612014573d6000803e3d6000fd5b505050506040513d602081101561202a57600080fd5b8101908080519060200190929190505050905063150b7a0260e01b7bffffffffffffffffffffffffffffffffffffffffffffffffffffffff1916817bffffffffffffffffffffffffffffffffffffffffffffffffffffffff1916149150505b949350505050565b8273ffffffffffffffffffffffffffffffffffffffff166002600083815260200190815260200160002060009054906101000a900473ffffffffffffffffffffffffffffffffffffffff1673ffffffffffffffffffffffffffffffffffffffff16146120fc57600080fd5b600073ffffffffffffffffffffffffffffffffffffffff168273ffffffffffffffffffffffffffffffffffffffff161415612182576040517f08c379a000000000000000000000000000000000000000000000000000000000815260040180806020018281038252602f815260200180612eb2602f913960400191505060405180910390fd5b61218b8161287c565b816002600083815260200190815260200160002060006101000a81548173ffffffffffffffffffffffffffffffffffffffff021916908373ffffffffffffffffffffffffffffffffffffffff160217905550612224600460008473ffffffffffffffffffffffffffffffffffffffff1673ffffffffffffffffffffffffffffffffffffffff16815260200190815260200160002061293a565b61226b600460008573ffffffffffffffffffffffffffffffffffffffff1673ffffffffffffffffffffffffffffffffffffffff168152602001908152602001600020612950565b808273ffffffffffffffffffffffffffffffffffffffff168473ffffffffffffffffffffffffffffffffffffffff167fddf252ad1be2c89b69c2b068fc378daa952ba7f163c4a11628f55a4df523b3ef60405160405180910390a4505050565b60006123236001600660008673ffffffffffffffffffffffffffffffffffffffff1673ffffffffffffffffffffffffffffffffffffffff1681526020019081526020016000208054905061297390919063ffffffff16565b9050600060076000848152602001908152602001600020549050818114612410576000600660008673ffffffffffffffffffffffffffffffffffffffff1673ffffffffffffffffffffffffffffffffffffffff168152602001908152602001600020838154811061239057fe5b9060005260206000200154905080600660008773ffffffffffffffffffffffffffffffffffffffff1673ffffffffffffffffffffffffffffffffffffffff16815260200190815260200160002083815481106123e857fe5b9060005260206000200181905550816007600083815260200190815260200160002081905550505b600660008573ffffffffffffffffffffffffffffffffffffffff1673ffffffffffffffffffffffffffffffffffffffff1681526020019081526020016000208054809190600190036124629190612dbf565b5050505050565b600660008373ffffffffffffffffffffffffffffffffffffffff1673ffffffffffffffffffffffffffffffffffffffff168152602001908152602001600020805490506007600083815260200190815260200160002081905550600660008373ffffffffffffffffffffffffffffffffffffffff1673ffffffffffffffffffffffffffffffffffffffff1681526020019081526020016000208190806001815401808255809150509060018203906000526020600020016000909192909190915055505050565b61253981611bf7565b1580156125735750600073ffffffffffffffffffffffffffffffffffffffff168273ffffffffffffffffffffffffffffffffffffffff1614155b61257c57600080fd5b816002600083815260200190815260200160002060006101000a81548173ffffffffffffffffffffffffffffffffffffffff021916908373ffffffffffffffffffffffffffffffffffffffff160217905550612615600460008473ffffffffffffffffffffffffffffffffffffffff1673ffffffffffffffffffffffffffffffffffffffff16815260200190815260200160002061293a565b808273ffffffffffffffffffffffffffffffffffffffff163373ffffffffffffffffffffffffffffffffffffffff167fddf252ad1be2c89b69c2b068fc378daa952ba7f163c4a11628f55a4df523b3ef60405160405180910390a45050565b6008805490506009600083815260200190815260200160002081905550600881908060018154018082558091505090600182039060005260206000200160009091929091909150555050565b60606000821415612708576040518060400160405280600181526020017f300000000000000000000000000000000000000000000000000000000000000081525090506127e8565b600082905060005b60008214612732578080600101915050600a828161272a57fe5b049150612710565b6060816040519080825280601f01601f1916602001820160405280156127675781602001600182028038833980820191505090505b50905060006001830390505b600086146127e057600a868161278557fe5b0660300160f81b8282806001900393508151811061279f57fe5b60200101907effffffffffffffffffffffffffffffffffffffffffffffffffffffffffffff1916908160001a905350600a86816127d857fe5b049550612773565b819450505050505b919050565b606061282983836040518060200160405280600081525060405180602001604052806000815250604051806020016040528060008152506129bd565b905092915050565b60008060007fc5d2460186f7233c927e7db2dcc703c0e500b653ca82273b7bfad8045d85a47060001b9050833f915080821415801561287357506000801b8214155b92505050919050565b600073ffffffffffffffffffffffffffffffffffffffff166003600083815260200190815260200160002060009054906101000a900473ffffffffffffffffffffffffffffffffffffffff1673ffffffffffffffffffffffffffffffffffffffff16146129375760006003600083815260200190815260200160002060006101000a81548173ffffffffffffffffffffffffffffffffffffffff021916908373ffffffffffffffffffffffffffffffffffffffff1602179055505b50565b6001816000016000828254019250508190555050565b6129686001826000015461297390919063ffffffff16565b816000018190555050565b60006129b583836040518060400160405280601e81526020017f536166654d6174683a207375627472616374696f6e206f766572666c6f770000815250612c7f565b905092915050565b6060808690506060869050606086905060608690506060869050606081518351855187518951010101016040519080825280601f01601f191660200182016040528015612a195781602001600182028038833980820191505090505b509050606081905060008090506000809050600090505b8851811015612a9e57888181518110612a4557fe5b602001015160f81c60f81b838380600101945081518110612a6257fe5b60200101907effffffffffffffffffffffffffffffffffffffffffffffffffffffffffffff1916908160001a9053508080600101915050612a30565b600090505b8751811015612b1157878181518110612ab857fe5b602001015160f81c60f81b838380600101945081518110612ad557fe5b60200101907effffffffffffffffffffffffffffffffffffffffffffffffffffffffffffff1916908160001a9053508080600101915050612aa3565b600090505b8651811015612b8457868181518110612b2b57fe5b602001015160f81c60f81b838380600101945081518110612b4857fe5b60200101907effffffffffffffffffffffffffffffffffffffffffffffffffffffffffffff1916908160001a9053508080600101915050612b16565b600090505b8551811015612bf757858181518110612b9e57fe5b602001015160f81c60f81b838380600101945081518110612bbb57fe5b60200101907effffffffffffffffffffffffffffffffffffffffffffffffffffffffffffff1916908160001a9053508080600101915050612b89565b600090505b8451811015612c6a57848181518110612c1157fe5b602001015160f81c60f81b838380600101945081518110612c2e57fe5b60200101907effffffffffffffffffffffffffffffffffffffffffffffffffffffffffffff1916908160001a9053508080600101915050612bfc565b82995050505050505050505095945050505050565b6000838311158290612d2c576040517f08c379a00000000000000000000000000000000000000000000000000000000081526004018080602001828103825283818151815260200191508051906020019080838360005b83811015612cf1578082015181840152602081019050612cd6565b50505050905090810190601f168015612d1e5780820380516001836020036101000a031916815260200191505b509250505060405180910390fd5b5060008385039050809150509392505050565b828054600181600116156101000203166002900490600052602060002090601f016020900481019282601f10612d8057805160ff1916838001178555612dae565b82800160010185558215612dae579182015b82811115612dad578251825591602001919060010190612d92565b5b509050612dbb9190612deb565b5090565b815481835581811115612de657818360005260206000209182019101612de59190612deb565b5b505050565b612e0d91905b80821115612e09576000816000905550600101612df1565b5090565b9056fe546865206d6573736167652073656e646572206d75737420626520746865206f776e6572206f662074686520746f6b656e206f7220616e20617070726f766564206f70657261746f72546869732066756e6374696f6e2063616e206f6e6c7920626520757365642062792074686520636f6e7472616374206f776e65724e65774f776e6572206e6565647320746f20626520612076616c6964206164647265737354686520746f6b656e206d757374206265207472616e73666572656420746f20612076616c69642061646472657373546865207265636569766572206f662074686520746f6b656e2063616e6e6f74206265207468652063757272656e74206f776e6572a265627a7a723158205fcbcbe49a70c82e2d6036172b6aab6707a13f418914dd04ad40389f4c13b6da64736f6c6343000511003268747470733a2f2f73332d75732d776573742d322e616d617a6f6e6177732e636f6d2f756461636974792d626c6f636b636861696e2f63617073746f6e652f",
  "source": "pragma solidity >=0.5.6;\n\nimport 'openzeppelin-solidity/contracts/utils/Address.sol';\nimport 'openzeppelin-solidity/contracts/drafts/Counters.sol';\nimport 'openzeppelin-solidity/contracts/math/SafeMath.sol';\nimport 'openzeppelin-solidity/contracts/token/ERC721/IERC721Receiver.sol';\nimport \"./Oraclize.sol\";\n\ncontract Ownable {\n\n    //  1) create a private '_owner' variable of type address with a public getter function\n    address private _owner;\n    //  2) create an internal constructor that sets the _owner var to the creater of the contract\n    constructor() public {\n        _owner = msg.sender;\n        emit OwnershipTransfer(address(0), _owner);\n    }\n    //  3) create an 'onlyOwner' modifier that throws if called by any account other than the owner.\n    modifier onlyOwner() {\n        require(msg.sender == _owner, \"This function can only be used by the contract owner\");\n        _;\n    }\n    //  4) fill out the transferOwnership function\n    //  5) create an event that emits anytime ownerShip is transfered (including in the constructor)\n    event OwnershipTransfer(address oldOwner, address newOwner);\n\n    function owner() public view returns(address) {\n        return _owner;\n    }\n\n    function transferOwnership(address newOwner) public onlyOwner {\n        // TODO add functionality to transfer control of the contract to a newOwner.\n        // make sure the new owner is a real address\n        require(newOwner != address(0), \"NewOwner needs to be a valid address\");\n        emit OwnershipTransfer(_owner, newOwner);\n        _owner = newOwner;\n    }\n}\n\n//  TODO's: Create a Pausable contract that inherits from the Ownable contract\n\ncontract Pausable is Ownable {\n    //  1) create a private '_paused' variable of type bool\n    bool private _paused;\n\n    //  2) create an internal constructor that sets the _paused variable to false\n    constructor() public {\n        _paused = false;\n    }\n\n    //  3) create 'whenNotPaused' & 'paused' modifier that throws in the appropriate situation\n    modifier paused() {\n        require(_paused == true, \"The contract must be paused\");\n        _;\n    }\n\n    modifier whenNotPaused() {\n        require(_paused == false, \"The contract must not be paused\");\n        _;\n    }\n\n    //  4) create a Paused & Unpaused event that emits the address that triggered the event\n    event Pause(address messageSender);\n    event Unpause(address messageSender);\n\n    //  5) create a public setter using the inherited onlyOwner modifier\n    function pauseContract() public onlyOwner whenNotPaused {\n        _paused = true;\n        emit Pause(msg.sender);\n    }\n\n    function unpauseContract() public onlyOwner paused {\n        _paused = false;\n        emit Unpause(msg.sender);\n    }\n\n}\n\n\n\n\ncontract ERC165 {\n    bytes4 private constant _INTERFACE_ID_ERC165 = 0x01ffc9a7;\n    /*\n     * 0x01ffc9a7 ===\n     *     bytes4(keccak256('supportsInterface(bytes4)'))\n     */\n\n    /**\n     * @dev a mapping of interface id to whether or not it's supported\n     */\n    mapping(bytes4 => bool) private _supportedInterfaces;\n\n    /**\n     * @dev A contract implementing SupportsInterfaceWithLookup\n     * implement ERC165 itself\n     */\n    constructor () internal {\n        _registerInterface(_INTERFACE_ID_ERC165);\n    }\n\n    /**\n     * @dev implement supportsInterface(bytes4) using a lookup table\n     */\n    function supportsInterface(bytes4 interfaceId) external view returns (bool) {\n        return _supportedInterfaces[interfaceId];\n    }\n\n    /**\n     * @dev internal method for registering an interface\n     */\n    function _registerInterface(bytes4 interfaceId) internal {\n        require(interfaceId != 0xffffffff);\n        _supportedInterfaces[interfaceId] = true;\n    }\n}\n\ncontract ERC721 is Pausable, ERC165 {\n\n    event Transfer(address indexed from, address indexed to, uint256 indexed tokenId);\n\n    event Approval(address indexed owner, address indexed approved, uint256 indexed tokenId);\n\n    event ApprovalForAll(address indexed owner, address indexed operator, bool approved);\n\n    using SafeMath for uint256;\n    using Address for address;\n    using Counters for Counters.Counter;\n\n    // Equals to `bytes4(keccak256(\"onERC721Received(address,address,uint256,bytes)\"))`\n    // which can be also obtained as `IERC721Receiver(0).onERC721Received.selector`\n    bytes4 private constant _ERC721_RECEIVED = 0x150b7a02;\n\n    // Mapping from token ID to owner\n    mapping (uint256 => address) private _tokenOwner;\n\n    // Mapping from token ID to approved address\n    mapping (uint256 => address) private _tokenApprovals;\n\n    // Mapping from owner to number of owned token\n    // IMPORTANT: this mapping uses Counters lib which is used to protect overflow when incrementing/decrementing a uint\n    // use the following functions when interacting with Counters: increment(), decrement(), and current() to get the value\n    // see: https://github.com/OpenZeppelin/openzeppelin-solidity/blob/master/contracts/drafts/Counters.sol\n    mapping (address => Counters.Counter) private _ownedTokensCount;\n\n    // Mapping from owner to operator approvals\n    mapping (address => mapping (address => bool)) private _operatorApprovals;\n\n    bytes4 private constant _INTERFACE_ID_ERC721 = 0x80ac58cd;\n\n    constructor () public {\n        // register the supported interfaces to conform to ERC721 via ERC165\n        _registerInterface(_INTERFACE_ID_ERC721);\n    }\n\n    function balanceOf(address owner) public view returns (uint256) {\n        // return the token balance of given address\n        // TIP: remember the functions to use for Counters. you can refresh yourself with the link above\n        return _ownedTokensCount[owner].current();\n    }\n\n    function ownerOf(uint256 tokenId) public view returns (address) {\n        // return the owner of the given tokenId\n        return _tokenOwner[tokenId];\n    }\n\n//    @dev Approves another address to transfer the given token ID\n    function approve(address to, uint256 tokenId) public {\n        address owner = owner();\n        // require the given address to not be the owner of the tokenId\n        require(to != ownerOf(tokenId), \"The receiver of the token cannot be the current owner\");\n\n        // require the msg sender to be the owner of the contract or isApprovedForAll() to be true\n        require(msg.sender == owner || isApprovedForAll(ownerOf(tokenId), msg.sender), \"The message sender must be the owner of the token or an approved operator\");\n        // add 'to' address to token approvals\n        _tokenApprovals[tokenId] = to;\n        // emit Approval Event\n        emit Approval(ownerOf(tokenId), to, tokenId);\n    }\n\n    function getApproved(uint256 tokenId) public view returns (address) {\n        // return token approval if it exists\n        require(_exists(tokenId), \"The token Id does not exist\");\n        return _tokenApprovals[tokenId];\n    }\n\n    /**\n     * @dev Sets or unsets the approval of a given operator\n     * An operator is allowed to transfer all tokens of the sender on their behalf\n     * @param to operator address to set the approval\n     * @param approved representing the status of the approval to be set\n     */\n    function setApprovalForAll(address to, bool approved) public {\n        require(to != msg.sender);\n        _operatorApprovals[msg.sender][to] = approved;\n        emit ApprovalForAll(msg.sender, to, approved);\n    }\n\n    /**\n     * @dev Tells whether an operator is approved by a given owner\n     * @param owner owner address which you want to query the approval of\n     * @param operator operator address which you want to query the approval of\n     * @return bool whether the given operator is approved by the given owner\n     */\n    function isApprovedForAll(address owner, address operator) public view returns (bool) {\n        return _operatorApprovals[owner][operator];\n    }\n\n    function transferFrom(address from, address to, uint256 tokenId) public {\n        require(_isApprovedOrOwner(msg.sender, tokenId));\n\n        _transferFrom(from, to, tokenId);\n    }\n\n    function safeTransferFrom(address from, address to, uint256 tokenId) public {\n        safeTransferFrom(from, to, tokenId, \"\");\n    }\n\n    function safeTransferFrom(address from, address to, uint256 tokenId, bytes memory _data) public {\n        transferFrom(from, to, tokenId);\n        require(_checkOnERC721Received(from, to, tokenId, _data));\n    }\n\n    /**\n     * @dev Returns whether the specified token exists\n     * @param tokenId uint256 ID of the token to query the existence of\n     * @return bool whether the token exists\n     */\n    function _exists(uint256 tokenId) internal view returns (bool) {\n        address owner = _tokenOwner[tokenId];\n        return owner != address(0);\n    }\n\n    /**\n     * @dev Returns whether the given spender can transfer a given token ID\n     * @param spender address of the spender to query\n     * @param tokenId uint256 ID of the token to be transferred\n     * @return bool whether the msg.sender is approved for the given token ID,\n     * is an operator of the owner, or is the owner of the token\n     */\n    function _isApprovedOrOwner(address spender, uint256 tokenId) internal view returns (bool) {\n        address owner = ownerOf(tokenId);\n        return (spender == owner || getApproved(tokenId) == spender || isApprovedForAll(owner, spender));\n    }\n\n    // @dev Internal function to mint a new token\n    // TIP: remember the functions to use for Counters. you can refresh yourself with the link above\n    function _mint(address to, uint256 tokenId) internal {\n\n        // revert if given tokenId already exists or given address is invalid\n        require(!_exists(tokenId) && to != address(0));\n\n        // mint tokenId to given address & increase token count of owner\n        _tokenOwner[tokenId] = to;\n        _ownedTokensCount[to].increment();\n        // emit Transfer event\n        emit Transfer(msg.sender, to, tokenId);\n    }\n\n    // @dev Internal function to transfer ownership of a given token ID to another address.\n    // TIP: remember the functions to use for Counters. you can refresh yourself with the link above\n    function _transferFrom(address from, address to, uint256 tokenId) internal {\n\n        // require from address is the owner of the given token\n        require(_tokenOwner[tokenId] == from);\n\n        // require token is being transfered to valid address\n        require(to != address(0), \"The token must be transfered to a valid address\");\n        // clear approval\n        _clearApproval(tokenId);\n        // update token counts & transfer ownership of the token ID\n        _tokenOwner[tokenId] = to;\n        _ownedTokensCount[to].increment();\n        _ownedTokensCount[from].decrement();\n        // emit correct event\n        emit Transfer(from, to, tokenId);\n    }\n\n    /**\n     * @dev Internal function to invoke `onERC721Received` on a target address\n     * The call is not executed if the target address is not a contract\n     * @param from address representing the previous owner of the given token ID\n     * @param to target address that will receive the tokens\n     * @param tokenId uint256 ID of the token to be transferred\n     * @param _data bytes optional data to send along with the call\n     * @return bool whether the call correctly returned the expected magic value\n     */\n    function _checkOnERC721Received(address from, address to, uint256 tokenId, bytes memory _data)\n        internal returns (bool)\n    {\n        if (!to.isContract()) {\n            return true;\n        }\n\n        bytes4 retval = IERC721Receiver(to).onERC721Received(msg.sender, from, tokenId, _data);\n        return (retval == _ERC721_RECEIVED);\n    }\n\n    // @dev Private function to clear current approval of a given token ID\n    function _clearApproval(uint256 tokenId) private {\n        if (_tokenApprovals[tokenId] != address(0)) {\n            _tokenApprovals[tokenId] = address(0);\n        }\n    }\n}\n\ncontract ERC721Enumerable is ERC165, ERC721 {\n    // Mapping from owner to list of owned token IDs\n    mapping(address => uint256[]) private _ownedTokens;\n\n    // Mapping from token ID to index of the owner tokens list\n    mapping(uint256 => uint256) private _ownedTokensIndex;\n\n    // Array with all token ids, used for enumeration\n    uint256[] private _allTokens;\n\n    // Mapping from token id to position in the allTokens array\n    mapping(uint256 => uint256) private _allTokensIndex;\n\n    bytes4 private constant _INTERFACE_ID_ERC721_ENUMERABLE = 0x780e9d63;\n    /*\n     * 0x780e9d63 ===\n     *     bytes4(keccak256('totalSupply()')) ^\n     *     bytes4(keccak256('tokenOfOwnerByIndex(address,uint256)')) ^\n     *     bytes4(keccak256('tokenByIndex(uint256)'))\n     */\n\n    /**\n     * @dev Constructor function\n     */\n    constructor () public {\n        // register the supported interface to conform to ERC721Enumerable via ERC165\n        _registerInterface(_INTERFACE_ID_ERC721_ENUMERABLE);\n    }\n\n    /**\n     * @dev Gets the token ID at a given index of the tokens list of the requested owner\n     * @param owner address owning the tokens list to be accessed\n     * @param index uint256 representing the index to be accessed of the requested tokens list\n     * @return uint256 token ID at the given index of the tokens list owned by the requested address\n     */\n    function tokenOfOwnerByIndex(address owner, uint256 index) public view returns (uint256) {\n        require(index < balanceOf(owner));\n        return _ownedTokens[owner][index];\n    }\n\n    /**\n     * @dev Gets the total amount of tokens stored by the contract\n     * @return uint256 representing the total amount of tokens\n     */\n    function totalSupply() public view returns (uint256) {\n        return _allTokens.length;\n    }\n\n    /**\n     * @dev Gets the token ID at a given index of all the tokens in this contract\n     * Reverts if the index is greater or equal to the total number of tokens\n     * @param index uint256 representing the index to be accessed of the tokens list\n     * @return uint256 token ID at the given index of the tokens list\n     */\n    function tokenByIndex(uint256 index) public view returns (uint256) {\n        require(index < totalSupply());\n        return _allTokens[index];\n    }\n\n    /**\n     * @dev Internal function to transfer ownership of a given token ID to another address.\n     * As opposed to transferFrom, this imposes no restrictions on msg.sender.\n     * @param from current owner of the token\n     * @param to address to receive the ownership of the given token ID\n     * @param tokenId uint256 ID of the token to be transferred\n     */\n    function _transferFrom(address from, address to, uint256 tokenId) internal {\n        super._transferFrom(from, to, tokenId);\n\n        _removeTokenFromOwnerEnumeration(from, tokenId);\n\n        _addTokenToOwnerEnumeration(to, tokenId);\n    }\n\n    /**\n     * @dev Internal function to mint a new token\n     * Reverts if the given token ID already exists\n     * @param to address the beneficiary that will own the minted token\n     * @param tokenId uint256 ID of the token to be minted\n     */\n    function _mint(address to, uint256 tokenId) internal {\n        super._mint(to, tokenId);\n\n        _addTokenToOwnerEnumeration(to, tokenId);\n\n        _addTokenToAllTokensEnumeration(tokenId);\n    }\n\n    /**\n     * @dev Gets the list of token IDs of the requested owner\n     * @param owner address owning the tokens\n     * @return uint256[] List of token IDs owned by the requested address\n     */\n    function _tokensOfOwner(address owner) internal view returns (uint256[] storage) {\n        return _ownedTokens[owner];\n    }\n\n    /**\n     * @dev Private function to add a token to this extension's ownership-tracking data structures.\n     * @param to address representing the new owner of the given token ID\n     * @param tokenId uint256 ID of the token to be added to the tokens list of the given address\n     */\n    function _addTokenToOwnerEnumeration(address to, uint256 tokenId) private {\n        _ownedTokensIndex[tokenId] = _ownedTokens[to].length;\n        _ownedTokens[to].push(tokenId);\n    }\n\n    /**\n     * @dev Private function to add a token to this extension's token tracking data structures.\n     * @param tokenId uint256 ID of the token to be added to the tokens list\n     */\n    function _addTokenToAllTokensEnumeration(uint256 tokenId) private {\n        _allTokensIndex[tokenId] = _allTokens.length;\n        _allTokens.push(tokenId);\n    }\n\n    /**\n     * @dev Private function to remove a token from this extension's ownership-tracking data structures. Note that\n     * while the token is not assigned a new owner, the _ownedTokensIndex mapping is _not_ updated: this allows for\n     * gas optimizations e.g. when performing a transfer operation (avoiding double writes).\n     * This has O(1) time complexity, but alters the order of the _ownedTokens array.\n     * @param from address representing the previous owner of the given token ID\n     * @param tokenId uint256 ID of the token to be removed from the tokens list of the given address\n     */\n    function _removeTokenFromOwnerEnumeration(address from, uint256 tokenId) private {\n        // To prevent a gap in from's tokens array, we store the last token in the index of the token to delete, and\n        // then delete the last slot (swap and pop).\n\n        uint256 lastTokenIndex = _ownedTokens[from].length.sub(1);\n        uint256 tokenIndex = _ownedTokensIndex[tokenId];\n\n        // When the token to delete is the last token, the swap operation is unnecessary\n        if (tokenIndex != lastTokenIndex) {\n            uint256 lastTokenId = _ownedTokens[from][lastTokenIndex];\n\n            _ownedTokens[from][tokenIndex] = lastTokenId; // Move the last token to the slot of the to-delete token\n            _ownedTokensIndex[lastTokenId] = tokenIndex; // Update the moved token's index\n        }\n\n        // This also deletes the contents at the last position of the array\n        _ownedTokens[from].length--;\n\n        // Note that _ownedTokensIndex[tokenId] hasn't been cleared: it still points to the old slot (now occupied by\n        // lastTokenId, or just over the end of the array if the token was the last one).\n    }\n\n    /**\n     * @dev Private function to remove a token from this extension's token tracking data structures.\n     * This has O(1) time complexity, but alters the order of the _allTokens array.\n     * @param tokenId uint256 ID of the token to be removed from the tokens list\n     */\n    function _removeTokenFromAllTokensEnumeration(uint256 tokenId) private {\n        // To prevent a gap in the tokens array, we store the last token in the index of the token to delete, and\n        // then delete the last slot (swap and pop).\n\n        uint256 lastTokenIndex = _allTokens.length.sub(1);\n        uint256 tokenIndex = _allTokensIndex[tokenId];\n\n        // When the token to delete is the last token, the swap operation is unnecessary. However, since this occurs so\n        // rarely (when the last minted token is burnt) that we still do the swap here to avoid the gas cost of adding\n        // an 'if' statement (like in _removeTokenFromOwnerEnumeration)\n        uint256 lastTokenId = _allTokens[lastTokenIndex];\n\n        _allTokens[tokenIndex] = lastTokenId; // Move the last token to the slot of the to-delete token\n        _allTokensIndex[lastTokenId] = tokenIndex; // Update the moved token's index\n\n        // This also deletes the contents at the last position of the array\n        _allTokens.length--;\n        _allTokensIndex[tokenId] = 0;\n    }\n}\n\ncontract ERC721Metadata is ERC721Enumerable, usingOraclize {\n\n    // Create private vars for token _name, _symbol, and _baseTokenURI (string)\n    string _name;\n    string _symbol;\n    string _baseTokenURI;\n\n    // TODO: create private mapping of tokenId's to token uri's called '_tokenURIs'\n    mapping (uint => string) private _tokenURIs;\n\n    bytes4 private constant _INTERFACE_ID_ERC721_METADATA = 0x5b5e139f;\n    /*\n     * 0x5b5e139f ===\n     *     bytes4(keccak256('name()')) ^\n     *     bytes4(keccak256('symbol()')) ^\n     *     bytes4(keccak256('tokenURI(uint256)'))\n     */\n\n\n    constructor (string memory name, string memory symbol, string memory baseTokenURI) public {\n        // set instance var values\n        _name = name;\n        _symbol = symbol;\n        _baseTokenURI = baseTokenURI;\n\n        _registerInterface(_INTERFACE_ID_ERC721_METADATA);\n    }\n\n    // create external getter functions for name, symbol, and baseTokenURI\n    function name() external view returns(string memory) {\n        return _name;\n    }\n\n    function symbol() external view returns(string memory) {\n        return _symbol;\n    }\n\n    function baseTokenURI() external view returns(string memory) {\n        return _baseTokenURI;\n    }\n\n    function tokenURI(uint256 tokenId) external view returns (string memory) {\n        require(_exists(tokenId));\n        return _tokenURIs[tokenId];\n    }\n\n\n    // Create an internal function to set the tokenURI of a specified tokenId\n    // It should be the _baseTokenURI + the tokenId in string form\n    // TIP #1: use strConcat() from the imported oraclizeAPI lib to set the complete token URI\n    // TIP #2: you can also use uint2str() to convert a uint to a string\n        // see https://github.com/oraclize/ethereum-api/blob/master/oraclizeAPI_0.5.sol for strConcat()\n    // require the token exists before setting\n    function setTokenFullURI(uint tokenId) internal {\n        require(_exists(tokenId), \"Given token does not exist\");\n        string memory tokenIdStrigified = uint2str(tokenId);\n        _tokenURIs[tokenId] = strConcat(_baseTokenURI, tokenIdStrigified);\n    }\n\n\n}\n\n// Create CustomERC721Token contract that inherits from the ERC721Metadata contract. You can name this contract as you please\n//  1) Pass in appropriate values for the inherited ERC721Metadata contract\n//      - make the base token uri: https://s3-us-west-2.amazonaws.com/udacity-blockchain/capstone/\n//  2) create a public mint() that does the following:\n//      -can only be executed by the contract owner\n//      -takes in a 'to' address, tokenId, and tokenURI (not needed?) as parameters\n//      -returns a true boolean upon completion of the function\n//      -calls the superclass mint and setTokenURI functions\n\ncontract NEELERC721Token is ERC721Metadata(\"Real Estate Marketplace\", \"NRM\", \"https://s3-us-west-2.amazonaws.com/udacity-blockchain/capstone/\") {\n\n    function mint(address to, uint tokenId) public onlyOwner returns(bool) {\n        super._mint(to, tokenId);\n        super.setTokenFullURI(tokenId);\n        return true;\n    }\n\n}\n",
  "sourcePath": "/Users/indraneelray/Documents/Blockchain-Capstone/eth-contracts/contracts/ERC721Mintable.sol",
  "compiler": {
    "name": "solc",
    "version": "0.5.17+commit.d19bba13.Emscripten.clang"
  },
  "schemaVersion": "3.1.0",
  "updatedAt": "2020-05-17T15:33:20.586Z",
  "networkType": "ethereum",
  "devdoc": {
    "methods": {
      "isApprovedForAll(address,address)": {
        "details": "Tells whether an operator is approved by a given owner",
        "params": {
          "operator": "operator address which you want to query the approval of",
          "owner": "owner address which you want to query the approval of"
        },
        "return": "bool whether the given operator is approved by the given owner"
      },
      "setApprovalForAll(address,bool)": {
        "details": "Sets or unsets the approval of a given operator An operator is allowed to transfer all tokens of the sender on their behalf",
        "params": {
          "approved": "representing the status of the approval to be set",
          "to": "operator address to set the approval"
        }
      },
      "supportsInterface(bytes4)": {
        "details": "implement supportsInterface(bytes4) using a lookup table"
      },
      "tokenByIndex(uint256)": {
        "details": "Gets the token ID at a given index of all the tokens in this contract Reverts if the index is greater or equal to the total number of tokens",
        "params": {
          "index": "uint256 representing the index to be accessed of the tokens list"
        },
        "return": "uint256 token ID at the given index of the tokens list"
      },
      "tokenOfOwnerByIndex(address,uint256)": {
        "details": "Gets the token ID at a given index of the tokens list of the requested owner",
        "params": {
          "index": "uint256 representing the index to be accessed of the requested tokens list",
          "owner": "address owning the tokens list to be accessed"
        },
        "return": "uint256 token ID at the given index of the tokens list owned by the requested address"
      },
      "totalSupply()": {
        "details": "Gets the total amount of tokens stored by the contract",
        "return": "uint256 representing the total amount of tokens"
      }
    }
  },
  "userdoc": {
    "methods": {}
  }
}